{
  "contractName": "Product",
  "abi": [
    {
      "inputs": [],
      "stateMutability": "nonpayable",
      "type": "constructor"
    },
    {
      "inputs": [
        {
          "internalType": "uint256",
          "name": "",
          "type": "uint256"
        }
      ],
      "name": "_itemIds",
      "outputs": [
        {
          "internalType": "uint256",
          "name": "",
          "type": "uint256"
        }
      ],
      "stateMutability": "view",
      "type": "function",
      "constant": true
    },
    {
      "inputs": [
        {
          "internalType": "uint256",
          "name": "",
          "type": "uint256"
        }
      ],
      "name": "_items",
      "outputs": [
        {
          "internalType": "uint256",
          "name": "id",
          "type": "uint256"
        },
        {
          "internalType": "string",
          "name": "title",
          "type": "string"
        },
        {
          "internalType": "uint256",
          "name": "quantity",
          "type": "uint256"
        },
        {
          "internalType": "string",
          "name": "unit",
          "type": "string"
        },
        {
          "internalType": "address",
          "name": "manufacturer",
          "type": "address"
        },
        {
          "internalType": "address",
          "name": "currentOwner",
          "type": "address"
        },
        {
          "internalType": "address",
          "name": "lastOwner",
          "type": "address"
        },
        {
          "internalType": "uint256",
          "name": "rating",
          "type": "uint256"
        },
        {
          "internalType": "uint256",
          "name": "launchDate",
          "type": "uint256"
        },
        {
          "internalType": "string",
          "name": "image_url",
          "type": "string"
        }
      ],
      "stateMutability": "view",
      "type": "function",
      "constant": true
    },
    {
      "inputs": [
        {
          "internalType": "uint256",
          "name": "_id",
          "type": "uint256"
        },
        {
          "internalType": "string",
          "name": "_title",
          "type": "string"
        },
        {
          "internalType": "uint256",
          "name": "_quantity",
          "type": "uint256"
        },
        {
          "internalType": "string",
          "name": "_unit",
          "type": "string"
        },
        {
          "components": [
            {
              "internalType": "string",
              "name": "name",
              "type": "string"
            },
            {
              "internalType": "bool",
              "name": "isVerified",
              "type": "bool"
            }
          ],
          "internalType": "struct Product.RawProduct[]",
          "name": "_rawProducts",
          "type": "tuple[]"
        },
        {
          "internalType": "string",
          "name": "image_url",
          "type": "string"
        }
      ],
      "name": "add",
      "outputs": [
        {
          "internalType": "bool",
          "name": "",
          "type": "bool"
        }
      ],
      "stateMutability": "nonpayable",
      "type": "function"
    },
    {
      "inputs": [
        {
          "internalType": "uint256",
          "name": "_id",
          "type": "uint256"
        }
      ],
      "name": "get",
      "outputs": [
        {
          "components": [
            {
              "internalType": "uint256",
              "name": "id",
              "type": "uint256"
            },
            {
              "internalType": "string",
              "name": "title",
              "type": "string"
            },
            {
              "internalType": "uint256",
              "name": "quantity",
              "type": "uint256"
            },
            {
              "internalType": "string",
              "name": "unit",
              "type": "string"
            },
            {
              "internalType": "address",
              "name": "manufacturer",
              "type": "address"
            },
            {
              "internalType": "address",
              "name": "currentOwner",
              "type": "address"
            },
            {
              "internalType": "address",
              "name": "lastOwner",
              "type": "address"
            },
            {
              "internalType": "uint256",
              "name": "rating",
              "type": "uint256"
            },
            {
              "internalType": "uint256",
              "name": "launchDate",
              "type": "uint256"
            },
            {
              "internalType": "string",
              "name": "image_url",
              "type": "string"
            }
          ],
          "internalType": "struct Product.Item",
          "name": "item",
          "type": "tuple"
        },
        {
          "components": [
            {
              "internalType": "uint256",
              "name": "txId",
              "type": "uint256"
            },
            {
              "internalType": "address",
              "name": "from",
              "type": "address"
            },
            {
              "internalType": "address",
              "name": "to",
              "type": "address"
            },
            {
              "internalType": "uint256",
              "name": "date",
              "type": "uint256"
            }
          ],
          "internalType": "struct Product.Transaction[]",
          "name": "transactions",
          "type": "tuple[]"
        },
        {
          "components": [
            {
              "internalType": "uint256",
              "name": "id",
              "type": "uint256"
            },
            {
              "internalType": "uint256",
              "name": "date",
              "type": "uint256"
            },
            {
              "internalType": "uint256",
              "name": "rating",
              "type": "uint256"
            },
            {
              "internalType": "string",
              "name": "comment",
              "type": "string"
            },
            {
              "internalType": "address",
              "name": "reviewer",
              "type": "address"
            }
          ],
          "internalType": "struct Product.Review[]",
          "name": "reviews",
          "type": "tuple[]"
        },
        {
          "components": [
            {
              "internalType": "string",
              "name": "name",
              "type": "string"
            },
            {
              "internalType": "bool",
              "name": "isVerified",
              "type": "bool"
            }
          ],
          "internalType": "struct Product.RawProduct[]",
          "name": "rawProducts",
          "type": "tuple[]"
        }
      ],
      "stateMutability": "view",
      "type": "function",
      "constant": true
    },
    {
      "inputs": [
        {
          "internalType": "address",
          "name": "_to",
          "type": "address"
        },
        {
          "internalType": "uint256",
          "name": "_id",
          "type": "uint256"
        }
      ],
      "name": "transfer",
      "outputs": [
        {
          "internalType": "bool",
          "name": "",
          "type": "bool"
        }
      ],
      "stateMutability": "nonpayable",
      "type": "function"
    },
    {
      "inputs": [
        {
          "internalType": "uint256",
          "name": "_id",
          "type": "uint256"
        },
        {
          "internalType": "uint256",
          "name": "_rating",
          "type": "uint256"
        },
        {
          "internalType": "string",
          "name": "_comment",
          "type": "string"
        }
      ],
      "name": "addReview",
      "outputs": [
        {
          "internalType": "bool",
          "name": "",
          "type": "bool"
        }
      ],
      "stateMutability": "nonpayable",
      "type": "function"
    },
    {
      "inputs": [],
      "name": "getItemIds",
      "outputs": [
        {
          "internalType": "uint256[]",
          "name": "",
          "type": "uint256[]"
        }
      ],
      "stateMutability": "view",
      "type": "function",
      "constant": true
    },
    {
      "inputs": [],
      "name": "getProductsCount",
      "outputs": [
        {
          "internalType": "uint256",
          "name": "",
          "type": "uint256"
        }
      ],
      "stateMutability": "view",
      "type": "function",
      "constant": true
    },
    {
      "inputs": [],
      "name": "getTransactionsCount",
      "outputs": [
        {
          "internalType": "uint256",
          "name": "",
          "type": "uint256"
        }
      ],
      "stateMutability": "view",
      "type": "function",
      "constant": true
    },
    {
      "inputs": [],
      "name": "getReviewsCount",
      "outputs": [
        {
          "internalType": "uint256",
          "name": "",
          "type": "uint256"
        }
      ],
      "stateMutability": "view",
      "type": "function",
      "constant": true
    }
  ],
  "bytecode": "0x608060405234801561001057600080fd5b5060006007819055506000600881905550612b1b806100306000396000f3fe608060405234801561001057600080fd5b506004361061009e5760003560e01c80639507d39a116100665780639507d39a14610166578063a9059cbb14610199578063ef0614b9146101c9578063f8e7284a146101e7578063ff80345b146102175761009e565b80631435ba3c146100a35780633e9e27aa146100c157806344029410146100f15780635786fd401461012a578063578cb8f914610148575b600080fd5b6100ab610247565b6040516100b89190612583565b60405180910390f35b6100db60048036038101906100d69190611d26565b610251565b6040516100e89190612467565b60405180910390f35b61010b60048036038101906101069190611c14565b6104b9565b6040516101219a9998979695949392919061259e565b60405180910390f35b610132610705565b60405161013f9190612583565b60405180910390f35b610150610711565b60405161015d9190612583565b60405180910390f35b610180600480360381019061017b9190611c14565b61071b565b6040516101909493929190612522565b60405180910390f35b6101b360048036038101906101ae9190611bd8565b61100a565b6040516101c09190612467565b60405180910390f35b6101d1611479565b6040516101de9190612445565b60405180910390f35b61020160048036038101906101fc9190611c14565b6114d1565b60405161020e9190612583565b60405180910390f35b610231600480360381019061022c9190611c3d565b6114f5565b60405161023e9190612467565b60405180910390f35b6000600854905090565b60003373ffffffffffffffffffffffffffffffffffffffff166001600086815260200190815260200160002060050160009054906101000a900473ffffffffffffffffffffffffffffffffffffffff1673ffffffffffffffffffffffffffffffffffffffff16146102f7576040517f08c379a00000000000000000000000000000000000000000000000000000000081526004016102ee90612502565b60405180910390fd5b6040518060a0016040528060085481526020014281526020018481526020018381526020013373ffffffffffffffffffffffffffffffffffffffff168152506002600060085481526020019081526020016000206000820151816000015560208201518160010155604082015181600201556060820151816003019080519060200190610385929190611875565b5060808201518160040160006101000a81548173ffffffffffffffffffffffffffffffffffffffff021916908373ffffffffffffffffffffffffffffffffffffffff160217905550905050600160056000868152602001908152602001600020805490506103f391906127ed565b836005600087815260200190815260200160002080549050600160008881526020019081526020016000206007015461042c9190612874565b61043691906127ed565b6104409190612843565b6001600086815260200190815260200160002060070181905550600560008581526020019081526020016000206008549080600181540180825580915050600190039060005260206000200160009091909190915055600860008154809291906104a99061298a565b9190505550600190509392505050565b60016020528060005260406000206000915090508060000154908060010180546104e290612958565b80601f016020809104026020016040519081016040528092919081815260200182805461050e90612958565b801561055b5780601f106105305761010080835404028352916020019161055b565b820191906000526020600020905b81548152906001019060200180831161053e57829003601f168201915b50505050509080600201549080600301805461057690612958565b80601f01602080910402602001604051908101604052809291908181526020018280546105a290612958565b80156105ef5780601f106105c4576101008083540402835291602001916105ef565b820191906000526020600020905b8154815290600101906020018083116105d257829003601f168201915b5050505050908060040160009054906101000a900473ffffffffffffffffffffffffffffffffffffffff16908060050160009054906101000a900473ffffffffffffffffffffffffffffffffffffffff16908060060160009054906101000a900473ffffffffffffffffffffffffffffffffffffffff169080600701549080600801549080600901805461068290612958565b80601f01602080910402602001604051908101604052809291908181526020018280546106ae90612958565b80156106fb5780601f106106d0576101008083540402835291602001916106fb565b820191906000526020600020905b8154815290600101906020018083116106de57829003601f168201915b505050505090508a565b60008080549050905090565b6000600754905090565b6107236118fb565b606080606060016000868152602001908152602001600020604051806101400160405290816000820154815260200160018201805461076190612958565b80601f016020809104026020016040519081016040528092919081815260200182805461078d90612958565b80156107da5780601f106107af576101008083540402835291602001916107da565b820191906000526020600020905b8154815290600101906020018083116107bd57829003601f168201915b50505050508152602001600282015481526020016003820180546107fd90612958565b80601f016020809104026020016040519081016040528092919081815260200182805461082990612958565b80156108765780601f1061084b57610100808354040283529160200191610876565b820191906000526020600020905b81548152906001019060200180831161085957829003601f168201915b505050505081526020016004820160009054906101000a900473ffffffffffffffffffffffffffffffffffffffff1673ffffffffffffffffffffffffffffffffffffffff1673ffffffffffffffffffffffffffffffffffffffff1681526020016005820160009054906101000a900473ffffffffffffffffffffffffffffffffffffffff1673ffffffffffffffffffffffffffffffffffffffff1673ffffffffffffffffffffffffffffffffffffffff1681526020016006820160009054906101000a900473ffffffffffffffffffffffffffffffffffffffff1673ffffffffffffffffffffffffffffffffffffffff1673ffffffffffffffffffffffffffffffffffffffff16815260200160078201548152602001600882015481526020016009820180546109a590612958565b80601f01602080910402602001604051908101604052809291908181526020018280546109d190612958565b8015610a1e5780601f106109f357610100808354040283529160200191610a1e565b820191906000526020600020905b815481529060010190602001808311610a0157829003601f168201915b5050505050815250509350600460008681526020019081526020016000208054905067ffffffffffffffff811115610a7f577f4e487b7100000000000000000000000000000000000000000000000000000000600052604160045260246000fd5b604051908082528060200260200182016040528015610ab857816020015b610aa5611990565b815260200190600190039081610a9d5790505b50925060005b6004600087815260200190815260200160002080549050811015610c665760036000600460008981526020019081526020016000208381548110610b2b577f4e487b7100000000000000000000000000000000000000000000000000000000600052603260045260246000fd5b90600052602060002001548152602001908152602001600020604051806080016040529081600082015481526020016001820160009054906101000a900473ffffffffffffffffffffffffffffffffffffffff1673ffffffffffffffffffffffffffffffffffffffff1673ffffffffffffffffffffffffffffffffffffffff1681526020016002820160009054906101000a900473ffffffffffffffffffffffffffffffffffffffff1673ffffffffffffffffffffffffffffffffffffffff1673ffffffffffffffffffffffffffffffffffffffff168152602001600382015481525050848281518110610c48577f4e487b7100000000000000000000000000000000000000000000000000000000600052603260045260246000fd5b60200260200101819052508080610c5e9061298a565b915050610abe565b50600560008681526020019081526020016000208054905067ffffffffffffffff811115610cbd577f4e487b7100000000000000000000000000000000000000000000000000000000600052604160045260246000fd5b604051908082528060200260200182016040528015610cf657816020015b610ce36119e4565b815260200190600190039081610cdb5790505b50915060005b6005600087815260200190815260200160002080549050811015610eea5760026000600560008981526020019081526020016000208381548110610d69577f4e487b7100000000000000000000000000000000000000000000000000000000600052603260045260246000fd5b906000526020600020015481526020019081526020016000206040518060a0016040529081600082015481526020016001820154815260200160028201548152602001600382018054610dbb90612958565b80601f0160208091040260200160405190810160405280929190818152602001828054610de790612958565b8015610e345780601f10610e0957610100808354040283529160200191610e34565b820191906000526020600020905b815481529060010190602001808311610e1757829003601f168201915b505050505081526020016004820160009054906101000a900473ffffffffffffffffffffffffffffffffffffffff1673ffffffffffffffffffffffffffffffffffffffff1673ffffffffffffffffffffffffffffffffffffffff1681525050838281518110610ecc577f4e487b7100000000000000000000000000000000000000000000000000000000600052603260045260246000fd5b60200260200101819052508080610ee29061298a565b915050610cfc565b5060066000868152602001908152602001600020805480602002602001604051908101604052809291908181526020016000905b82821015610ffd5783829060005260206000209060020201604051806040016040529081600082018054610f5190612958565b80601f0160208091040260200160405190810160405280929190818152602001828054610f7d90612958565b8015610fca5780601f10610f9f57610100808354040283529160200191610fca565b820191906000526020600020905b815481529060010190602001808311610fad57829003601f168201915b505050505081526020016001820160009054906101000a900460ff16151515158152505081526020019060010190610f1e565b5050505090509193509193565b60008073ffffffffffffffffffffffffffffffffffffffff166001600084815260200190815260200160002060050160009054906101000a900473ffffffffffffffffffffffffffffffffffffffff1673ffffffffffffffffffffffffffffffffffffffff1614156110b1576040517f08c379a00000000000000000000000000000000000000000000000000000000081526004016110a890612482565b60405180910390fd5b8273ffffffffffffffffffffffffffffffffffffffff166001600084815260200190815260200160002060050160009054906101000a900473ffffffffffffffffffffffffffffffffffffffff1673ffffffffffffffffffffffffffffffffffffffff161415611156576040517f08c379a000000000000000000000000000000000000000000000000000000000815260040161114d906124a2565b60405180910390fd5b600073ffffffffffffffffffffffffffffffffffffffff168373ffffffffffffffffffffffffffffffffffffffff1614156111c6576040517f08c379a00000000000000000000000000000000000000000000000000000000081526004016111bd906124e2565b60405180910390fd5b6001600083815260200190815260200160002060050160009054906101000a900473ffffffffffffffffffffffffffffffffffffffff166001600084815260200190815260200160002060060160006101000a81548173ffffffffffffffffffffffffffffffffffffffff021916908373ffffffffffffffffffffffffffffffffffffffff160217905550826001600084815260200190815260200160002060050160006101000a81548173ffffffffffffffffffffffffffffffffffffffff021916908373ffffffffffffffffffffffffffffffffffffffff160217905550604051806080016040528060075481526020016001600085815260200190815260200160002060060160009054906101000a900473ffffffffffffffffffffffffffffffffffffffff1673ffffffffffffffffffffffffffffffffffffffff1681526020016001600085815260200190815260200160002060050160009054906101000a900473ffffffffffffffffffffffffffffffffffffffff1673ffffffffffffffffffffffffffffffffffffffff168152602001428152506003600060075481526020019081526020016000206000820151816000015560208201518160010160006101000a81548173ffffffffffffffffffffffffffffffffffffffff021916908373ffffffffffffffffffffffffffffffffffffffff16021790555060408201518160020160006101000a81548173ffffffffffffffffffffffffffffffffffffffff021916908373ffffffffffffffffffffffffffffffffffffffff160217905550606082015181600301559050506004600083815260200190815260200160002060075490806001815401808255809150506001900390600052602060002001600090919091909150556007600081548092919061146a9061298a565b91905055506001905092915050565b606060008054806020026020016040519081016040528092919081815260200182805480156114c757602002820191906000526020600020905b8154815260200190600101908083116114b3575b5050505050905090565b600081815481106114e157600080fd5b906000526020600020016000915090505481565b600080339050600073ffffffffffffffffffffffffffffffffffffffff168173ffffffffffffffffffffffffffffffffffffffff16141561156b576040517f08c379a0000000000000000000000000000000000000000000000000000000008152600401611562906124c2565b60405180910390fd5b6040518061014001604052808981526020018881526020018781526020018681526020018273ffffffffffffffffffffffffffffffffffffffff1681526020018273ffffffffffffffffffffffffffffffffffffffff168152602001600073ffffffffffffffffffffffffffffffffffffffff1681526020016000815260200142815260200184815250600160008a815260200190815260200160002060008201518160000155602082015181600101908051906020019061162e929190611875565b50604082015181600201556060820151816003019080519060200190611655929190611875565b5060808201518160040160006101000a81548173ffffffffffffffffffffffffffffffffffffffff021916908373ffffffffffffffffffffffffffffffffffffffff16021790555060a08201518160050160006101000a81548173ffffffffffffffffffffffffffffffffffffffff021916908373ffffffffffffffffffffffffffffffffffffffff16021790555060c08201518160060160006101000a81548173ffffffffffffffffffffffffffffffffffffffff021916908373ffffffffffffffffffffffffffffffffffffffff16021790555060e08201518160070155610100820151816008015561012082015181600901908051906020019061175d929190611875565b5090505060005b845181101561183c57600660008a81526020019081526020016000208582815181106117b9577f4e487b7100000000000000000000000000000000000000000000000000000000600052603260045260246000fd5b602002602001015190806001815401808255809150506001900390600052602060002090600202016000909190919091506000820151816000019080519060200190611806929190611875565b5060208201518160010160006101000a81548160ff021916908315150217905550505080806118349061298a565b915050611764565b50600088908060018154018082558091505060019003906000526020600020016000909190919091505560019150509695505050505050565b82805461188190612958565b90600052602060002090601f0160209004810192826118a357600085556118ea565b82601f106118bc57805160ff19168380011785556118ea565b828001600101855582156118ea579182015b828111156118e95782518255916020019190600101906118ce565b5b5090506118f79190611a29565b5090565b60405180610140016040528060008152602001606081526020016000815260200160608152602001600073ffffffffffffffffffffffffffffffffffffffff168152602001600073ffffffffffffffffffffffffffffffffffffffff168152602001600073ffffffffffffffffffffffffffffffffffffffff1681526020016000815260200160008152602001606081525090565b604051806080016040528060008152602001600073ffffffffffffffffffffffffffffffffffffffff168152602001600073ffffffffffffffffffffffffffffffffffffffff168152602001600081525090565b6040518060a0016040528060008152602001600081526020016000815260200160608152602001600073ffffffffffffffffffffffffffffffffffffffff1681525090565b5b80821115611a42576000816000905550600101611a2a565b5090565b6000611a59611a5484612680565b61264f565b9050808382526020820190508260005b85811015611a995781358501611a7f8882611b5f565b845260208401935060208301925050600181019050611a69565b5050509392505050565b6000611ab6611ab1846126ac565b61264f565b905082815260208101848484011115611ace57600080fd5b611ad9848285612916565b509392505050565b600081359050611af081612aa0565b92915050565b600082601f830112611b0757600080fd5b8135611b17848260208601611a46565b91505092915050565b600081359050611b2f81612ab7565b92915050565b600082601f830112611b4657600080fd5b8135611b56848260208601611aa3565b91505092915050565b600060408284031215611b7157600080fd5b611b7b604061264f565b9050600082013567ffffffffffffffff811115611b9757600080fd5b611ba384828501611b35565b6000830152506020611bb784828501611b20565b60208301525092915050565b600081359050611bd281612ace565b92915050565b60008060408385031215611beb57600080fd5b6000611bf985828601611ae1565b9250506020611c0a85828601611bc3565b9150509250929050565b600060208284031215611c2657600080fd5b6000611c3484828501611bc3565b91505092915050565b60008060008060008060c08789031215611c5657600080fd5b6000611c6489828a01611bc3565b965050602087013567ffffffffffffffff811115611c8157600080fd5b611c8d89828a01611b35565b9550506040611c9e89828a01611bc3565b945050606087013567ffffffffffffffff811115611cbb57600080fd5b611cc789828a01611b35565b935050608087013567ffffffffffffffff811115611ce457600080fd5b611cf089828a01611af6565b92505060a087013567ffffffffffffffff811115611d0d57600080fd5b611d1989828a01611b35565b9150509295509295509295565b600080600060608486031215611d3b57600080fd5b6000611d4986828701611bc3565b9350506020611d5a86828701611bc3565b925050604084013567ffffffffffffffff811115611d7757600080fd5b611d8386828701611b35565b9150509250925092565b6000611d99838361231f565b905092915050565b6000611dad838361235c565b905092915050565b6000611dc183836123d2565b60808301905092915050565b6000611dd98383612427565b60208301905092915050565b611dee816128ce565b82525050565b611dfd816128ce565b82525050565b6000611e0e8261271c565b611e188185612787565b935083602082028501611e2a856126dc565b8060005b85811015611e665784840389528151611e478582611d8d565b9450611e5283612753565b925060208a01995050600181019050611e2e565b50829750879550505050505092915050565b6000611e8382612727565b611e8d8185612798565b935083602082028501611e9f856126ec565b8060005b85811015611edb5784840389528151611ebc8582611da1565b9450611ec783612760565b925060208a01995050600181019050611ea3565b50829750879550505050505092915050565b6000611ef882612732565b611f0281856127a9565b9350611f0d836126fc565b8060005b83811015611f3e578151611f258882611db5565b9750611f308361276d565b925050600181019050611f11565b5085935050505092915050565b6000611f568261273d565b611f6081856127ba565b9350611f6b8361270c565b8060005b83811015611f9c578151611f838882611dcd565b9750611f8e8361277a565b925050600181019050611f6f565b5085935050505092915050565b611fb2816128e0565b82525050565b611fc1816128e0565b82525050565b6000611fd282612748565b611fdc81856127cb565b9350611fec818560208601612925565b611ff581612a8f565b840191505092915050565b600061200b82612748565b61201581856127dc565b9350612025818560208601612925565b61202e81612a8f565b840191505092915050565b60006120466029836127dc565b91507f50726f647563743a3a7472616e736665723a2050726f6475637420646f65732060008301527f6e6f7420657869737400000000000000000000000000000000000000000000006020830152604082019050919050565b60006120ac602a836127dc565b91507f50726f647563743a3a7472616e736665723a2043616e6e6f74207472616e736660008301527f657220746f2073656c66000000000000000000000000000000000000000000006020830152604082019050919050565b60006121126029836127dc565b91507f50726f647563743a3a6164643a204d616e7566616374757265722063616e6e6f60008301527f74206265206e756c6c00000000000000000000000000000000000000000000006020830152604082019050919050565b60006121786032836127dc565b91507f50726f647563743a3a7472616e736665723a2043616e6e6f74207472616e736660008301527f657220746f206e756c6c206164647265737300000000000000000000000000006020830152604082019050919050565b60006121de6035836127dc565b91507f50726f647563743a3a6164645265766965773a204f6e6c792063757272656e7460008301527f206f776e65722063616e206164642072657669657700000000000000000000006020830152604082019050919050565b6000610140830160008301516122506000860182612427565b50602083015184820360208601526122688282611fc7565b915050604083015161227d6040860182612427565b50606083015184820360608601526122958282611fc7565b91505060808301516122aa6080860182611de5565b5060a08301516122bd60a0860182611de5565b5060c08301516122d060c0860182611de5565b5060e08301516122e360e0860182612427565b506101008301516122f8610100860182612427565b506101208301518482036101208601526123128282611fc7565b9150508091505092915050565b6000604083016000830151848203600086015261233c8282611fc7565b91505060208301516123516020860182611fa9565b508091505092915050565b600060a0830160008301516123746000860182612427565b5060208301516123876020860182612427565b50604083015161239a6040860182612427565b50606083015184820360608601526123b28282611fc7565b91505060808301516123c76080860182611de5565b508091505092915050565b6080820160008201516123e86000850182612427565b5060208201516123fb6020850182611de5565b50604082015161240e6040850182611de5565b5060608201516124216060850182612427565b50505050565b6124308161290c565b82525050565b61243f8161290c565b82525050565b6000602082019050818103600083015261245f8184611f4b565b905092915050565b600060208201905061247c6000830184611fb8565b92915050565b6000602082019050818103600083015261249b81612039565b9050919050565b600060208201905081810360008301526124bb8161209f565b9050919050565b600060208201905081810360008301526124db81612105565b9050919050565b600060208201905081810360008301526124fb8161216b565b9050919050565b6000602082019050818103600083015261251b816121d1565b9050919050565b6000608082019050818103600083015261253c8187612237565b905081810360208301526125508186611eed565b905081810360408301526125648185611e78565b905081810360608301526125788184611e03565b905095945050505050565b60006020820190506125986000830184612436565b92915050565b6000610140820190506125b4600083018d612436565b81810360208301526125c6818c612000565b90506125d5604083018b612436565b81810360608301526125e7818a612000565b90506125f66080830189611df4565b61260360a0830188611df4565b61261060c0830187611df4565b61261d60e0830186612436565b61262b610100830185612436565b81810361012083015261263e8184612000565b90509b9a5050505050505050505050565b6000604051905081810181811067ffffffffffffffff8211171561267657612675612a60565b5b8060405250919050565b600067ffffffffffffffff82111561269b5761269a612a60565b5b602082029050602081019050919050565b600067ffffffffffffffff8211156126c7576126c6612a60565b5b601f19601f8301169050602081019050919050565b6000819050602082019050919050565b6000819050602082019050919050565b6000819050602082019050919050565b6000819050602082019050919050565b600081519050919050565b600081519050919050565b600081519050919050565b600081519050919050565b600081519050919050565b6000602082019050919050565b6000602082019050919050565b6000602082019050919050565b6000602082019050919050565b600082825260208201905092915050565b600082825260208201905092915050565b600082825260208201905092915050565b600082825260208201905092915050565b600082825260208201905092915050565b600082825260208201905092915050565b60006127f88261290c565b91506128038361290c565b9250827fffffffffffffffffffffffffffffffffffffffffffffffffffffffffffffffff03821115612838576128376129d3565b5b828201905092915050565b600061284e8261290c565b91506128598361290c565b92508261286957612868612a02565b5b828204905092915050565b600061287f8261290c565b915061288a8361290c565b9250817fffffffffffffffffffffffffffffffffffffffffffffffffffffffffffffffff04831182151516156128c3576128c26129d3565b5b828202905092915050565b60006128d9826128ec565b9050919050565b60008115159050919050565b600073ffffffffffffffffffffffffffffffffffffffff82169050919050565b6000819050919050565b82818337600083830152505050565b60005b83811015612943578082015181840152602081019050612928565b83811115612952576000848401525b50505050565b6000600282049050600182168061297057607f821691505b6020821081141561298457612983612a31565b5b50919050565b60006129958261290c565b91507fffffffffffffffffffffffffffffffffffffffffffffffffffffffffffffffff8214156129c8576129c76129d3565b5b600182019050919050565b7f4e487b7100000000000000000000000000000000000000000000000000000000600052601160045260246000fd5b7f4e487b7100000000000000000000000000000000000000000000000000000000600052601260045260246000fd5b7f4e487b7100000000000000000000000000000000000000000000000000000000600052602260045260246000fd5b7f4e487b7100000000000000000000000000000000000000000000000000000000600052604160045260246000fd5b6000601f19601f8301169050919050565b612aa9816128ce565b8114612ab457600080fd5b50565b612ac0816128e0565b8114612acb57600080fd5b50565b612ad78161290c565b8114612ae257600080fd5b5056fea26469706673582212204eedf337b9350ab8884b89627e06e260162353c6cf292a71767f2efc58710d3564736f6c63430008000033",
  "immutableReferences": {},
  "source": "// SPDX-License-Identifier: MIT\r\npragma solidity ^0.8.0;\r\ncontract Product {\r\n\r\n  struct Transaction{\r\n    uint256 txId;\r\n    address from;\r\n    address to;\r\n    uint date;\r\n  }\r\n\r\n  struct Review{\r\n    uint256 id;\r\n    uint date;\r\n    uint256 rating;\r\n    string comment;\r\n    address reviewer;\r\n  }\r\n\r\n  struct RawProduct{\r\n    string name;\r\n    bool isVerified;\r\n  }\r\n\r\n  struct Item{\r\n    uint256 id;\r\n    string title;\r\n    uint256 quantity;\r\n    string unit;\r\n    address manufacturer;\r\n    address currentOwner;\r\n    address lastOwner;\r\n    uint256 rating;\r\n    uint launchDate;\r\n    string image_url;\r\n  }\r\n\r\n  uint256[] public _itemIds;\r\n  mapping(uint256 => Item) public _items;\r\n  mapping(uint256 => Review) _reviews;\r\n  mapping(uint256 => Transaction) _transactions;\r\n\r\n  mapping(uint256 => uint256[]) _itemTransactions;\r\n  mapping(uint256 => uint256[]) _itemReviews;\r\n  mapping(uint256 => RawProduct[]) _itemRawProducts;\r\n\r\n  uint256 _nextTransactionId;\r\n  uint256 _nextReviewId;\r\n\r\n  constructor() {\r\n    _nextTransactionId = 0;\r\n    _nextReviewId = 0;\r\n  }\r\n\r\n  function add(uint256 _id, string memory _title, uint256 _quantity, string memory _unit, RawProduct[] memory _rawProducts, string memory image_url) public returns (bool){\r\n    address _manufacturer = msg.sender;\r\n    require (_manufacturer != address(0), \"Product::add: Manufacturer cannot be null\");\r\n    _items[_id] = Item({\r\n      id: _id,\r\n      title: _title,\r\n      quantity: _quantity,\r\n      unit: _unit,\r\n      manufacturer: _manufacturer,\r\n      currentOwner: _manufacturer,\r\n      lastOwner: address(0),\r\n      rating: 0,\r\n      launchDate: block.timestamp,\r\n      image_url: image_url\r\n    });\r\n    for(uint i = 0; i < _rawProducts.length; i++){\r\n      _itemRawProducts[_id].push(_rawProducts[i]);\r\n    }\r\n    _itemIds.push(_id);\r\n    return true;\r\n  }\r\n\r\n  function get(uint256 _id) public view returns (\r\n    Item memory item, \r\n    Transaction[] memory transactions, \r\n    Review[] memory reviews,\r\n    RawProduct[] memory rawProducts\r\n  ){\r\n    item = _items[_id];\r\n    transactions = new Transaction[](_itemTransactions[_id].length);\r\n    for (uint256 i = 0; i < _itemTransactions[_id].length; i++){\r\n      transactions[i] = _transactions[_itemTransactions[_id][i]];\r\n    }\r\n    reviews = new Review[](_itemReviews[_id].length);\r\n    for (uint256 i = 0; i < _itemReviews[_id].length; i++){\r\n      reviews[i] = _reviews[_itemReviews[_id][i]];\r\n    }\r\n    rawProducts = _itemRawProducts[_id];\r\n  }\r\n\r\n  function transfer(address _to, uint256 _id) public returns (bool){\r\n    require (_items[_id].currentOwner != address(0), \"Product::transfer: Product does not exist\");\r\n    require (_items[_id].currentOwner != _to, \"Product::transfer: Cannot transfer to self\");\r\n    require (_to != address(0), \"Product::transfer: Cannot transfer to null address\");\r\n    \r\n    _items[_id].lastOwner = _items[_id].currentOwner;\r\n    _items[_id].currentOwner = _to;\r\n    \r\n    _transactions[_nextTransactionId] = Transaction({ \r\n      txId: _nextTransactionId,\r\n      from: _items[_id].lastOwner,\r\n      to: _items[_id].currentOwner,\r\n      date: block.timestamp\r\n    });\r\n    _itemTransactions[_id].push(_nextTransactionId);\r\n    _nextTransactionId++;\r\n    return true;\r\n  }\r\n\r\n  function addReview(uint256 _id, uint256 _rating, string memory _comment) public returns (bool){\r\n    require (_items[_id].currentOwner == msg.sender, \"Product::addReview: Only current owner can add review\");\r\n    _reviews[_nextReviewId] = Review({\r\n      id: _nextReviewId,\r\n      date: block.timestamp,\r\n      rating: _rating,\r\n      comment: _comment,\r\n      reviewer: msg.sender\r\n    });\r\n    _items[_id].rating = (_items[_id].rating * _itemReviews[_id].length + _rating) / (_itemReviews[_id].length + 1);\r\n    _itemReviews[_id].push(_nextReviewId);\r\n    _nextReviewId++;\r\n    return true;\r\n  }\r\n\r\n  function getItemIds() public view returns (uint256[] memory){\r\n    return _itemIds;\r\n  }\r\n\r\n  function getProductsCount() public view returns (uint256){\r\n    return _itemIds.length;\r\n  }\r\n\r\n  function getTransactionsCount() public view returns (uint256){\r\n    return _nextTransactionId;\r\n  }\r\n\r\n  function getReviewsCount() public view returns (uint256){\r\n    return _nextReviewId;\r\n  }\r\n\r\n}",
  "sourcePath": "F:\\nam5\\blockchains\\supply-chain\\src\\Smart-contract\\Contracts\\Product.sol",
  "compiler": {
    "name": "solc",
    "version": "0.8.0+commit.c7dfd78e.Emscripten.clang"
  },
  "schemaVersion": "3.4.16",
  "updatedAt": "2024-12-31T13:46:57.386Z",
  "networkType": "ethereum",
  "devdoc": {
    "kind": "dev",
    "methods": {},
    "version": 1
  },
  "userdoc": {
    "kind": "user",
    "methods": {},
    "version": 1
  }
}